:020000040000FA
:1000000002002500000080FB12002EB90003020050
:100010001FE479107802B800028004F709D8FC12B6
:1000200000DE12000375D0007581BF02000879015F
:10003000227C007D008019E82401F8E93400F9C32E
:10004000E89417E9940240EFEC2401FCED3400FD44
:10005000C3EC9AED9B50067800790080E27810E6B8
:100060002401F608740036F61822E9A2E09290E91D
:10007000A2E09291E9A2E092942243FE0143FE02A3
:1000800043FE1000790002006A53F3FD53FDFD5357
:100090008FFD22A28140127A0A7B00120031A281D8
:1000A0004007A28150FC790122790022A2A04012CF
:1000B0007A0A7B00120031A2A04007A2A050FC796E
:1000C0000122790022A28740127A0A7B00120031B5
:1000D000A2874007A28750FC7901227900221200F2
:1000E0007A1200897E017F00750801750900806C15
:1000F000D2907AF47B01120031C290D2917AF47BD3
:1001000001120031C291D2947AF47B01120031C203
:1001100094740365087004740065097012D2917AB2
:10012000E87B03120031C2917AF47B011200317432
:100130000265087004740065097021D2947AF47B1A
:1001400001120031C294D2917AF47B01120031C2C3
:1001500091D2907AF47B01120031C2907A027B0036
:10016000120031120093E96017750801750900EE5D
:100170004F7004D2F08002C2F0A2F0E433FE7F00A0
:100180001200ACE960067508027509001200C5E9A5
:100190006006750803750900740165087004740031
:1001A00065096003020111EE4F70030200F0D29066
:1001B0007AF47B01120031C2907AF47B0112003193
:0301C00002011128
:0400000500000025D2
:00000001FF
