:020000040000FA
:0300000002009B60
:10004B000200DB00000080FB1200A4B900030200D9
:10005B0095E4900001780679018002F0A3D8FCD9D1
:10006B00FA900006AA82AB839000A77805790180ED
:10007B0015E493A3AC82AD838A828B83F0A3AA820F
:10008B00AB838C828D83D8E9D9E71201EB12004E3A
:10009B0075D0007581BF0200537901220101FFFF6A
:1000AB0043FE13C290C291C2942253F3FD53FDFD44
:1000BB00538FFD53F37F53FD7F538F7F2243E40C0C
:1000CB0075DA7D75DB00D2DED2B9D2AF43E4032201
:1000DB00C0E0C0D0E8C0E0C082C08353AFDF900067
:1000EB0005E0700E900001E02401F0A3E03400F075
:1000FB00800C900003E02401F0A3E03400F0A28117
:10010B00E433F8900008E0C33348900008F0A2876E
:10011B00E433F8900009E0C33348900009F09000F5
:10012B0008E070189000067400F0900005E0640180
:10013B0070449000057400F0C294803A900009E07E
:10014B0070169000077400F0900005E07028900086
:10015B00057401F0C290801E900006E064FF7008E9
:10016B009000067401F0800E900007E064FF7006AB
:10017B009000077401F0900005E0702D900001E0F5
:10018B0064EE7004A3E064027004D2908046900089
:10019B0001C3E094E8A3E094034039C290900001BE
:1001AB007400F0A37400F0802B900003E064EE70F9
:1001BB0004A3E064027004D2948019900003C3E09E
:1001CB0094E8A3E09403400CC2949000037400F0F5
:1001DB00A37400F0D083D082D0E0F8D0D0D0E0323E
:0B01EB001200AB1200B51200C880FE2D
:040000050000009B5C
:00000001FF
