:020000040000FA
:0300000002009269
:0300330002025F67
:10006B0002022D00000080FB1200A1B90003020068
:10007B008CE4900200780779018002F0A3D8FCD9B8
:10008B00FA1202A112006E75D0007581BF751000B7
:10009B00751102020073790122C0D02510C582C0F0
:1000AB00E0E51134FFC583C0E0E510C3958224F36E
:1000BB0010AF088583118582108008858311858296
:1000CB0010D2AFC8F0A3E9F0A3EAF0A3EBF0A37949
:1000DB0008E709F0A3D8FAECF0A3EDF0A3EEF0A338
:1000EB00EFF0A3D0E0F0A3D0E0F0A3D0E0F0A3E5D5
:1000FB0020F0A3E5F0F0A322851183851082E0C0E8
:10010B00E0A3E0F9A3E0FAA3E0FBA37808E0F6088C
:10011B00A3DFFAE0FCA3E0FDA3E0FEA3E0FFA3E076
:10012B00C0E0A3E0C0E0A3E0F5D0A3E0F520A3E09E
:10013B00A3F5F010AF0885831185821080088583A5
:10014B0011858210D2AFD082D083D0E0F8D0E032CC
:10015B00C082C0837C007D00801F900201E070FA9A
:10016B00E82401F8E93400F9C3E89417E994024054
:10017B00E9EC2401FCED3400FDC3EC9AED9B500639
:10018B007800790080E2900202E02401F0A3E034D1
:10019B0000F0D083D08222C082C0837C007D00809F
:1001AB0019E82401F8E93400F9C3E89417E994023B
:1001BB0040EFEC2401FCED3400FDC3EC9AED9B50B9
:1001CB00067800790080E2900204E02401F0A3E0BD
:1001DB003400F0D083D08222E9A2E09290E9A2E031
:1001EB009291E9A2E092942243FE0143FE0243FE68
:1001FB001079000201E353F37F53FD7F538F7F533D
:10020B00F5FE53FFFE53F7FE43AB80438C01D2BD8B
:10021B0075890043AC01438C08439A02758B00D25D
:10022B00AF22C0E074F21200A4E589A2E7501B7A5A
:10023B000A7B001201A2A2874010900200E070041A
:10024B00740180027400900200F053897FC2C57F55
:10025B0001020103C0E074F21200A4E58BA2E0508E
:10026B002B7A0A7B001201A2A2A0400E900201E0A1
:10027B0070089002017401F08012A2A0400E90024F
:10028B0001E0640170069002017400F0538BFEC212
:10029B00E87F010201031201F31202018033D2F055
:1002AB00A29430F001B392947AC87B0012015BD216
:1002BB00F0A29130F001B392917AC87B0012015BEE
:1002CB00D2F0A29030F001B392907AC87B00120169
:1002DB005B900200E0640160C579001201E3D290EB
:1002EB007AF47B0112015BC2907AF47B0112015B01
:0202FB0080DFA2
:040000050000009265
:00000001FF
