:020000040000FA
:0300000002009269
:03002B000201943B
:10006B000201A700000080FB1200C2B900030200CE
:10007B007C75824675830274001200A475826E75BE
:10008B00830074001200A475D0007581BF75100039
:10009B00751102759F00020073C09FF59FE473D02A
:1000AB009F22D083D082C09FE493C0E0740193C0A1
:1000BB00E0740293F59F227901221200ADC4010076
:1000CB001200ADF301001200ADFB01001200AD2DCB
:1000DB000200C0D02510C582C0E0E51134FFC583F6
:1000EB00C0E0E510C3958224F310AF08858311851A
:1000FB0082108008858311858210D2AFC8F0A3E9E6
:10010B00F0A3EAF0A3EBF0A37908E709F0A3D8FA80
:10011B00ECF0A3EDF0A3EEF0A3EFF0A3D0E0F0A38F
:10012B00D0E0F0A3D0E0F0A3E520F0A3E5F0F0A33E
:10013B0022851183851082E0C0E0A3E0F9A3E0FAE9
:10014B00A3E0FBA37808E0F608A3DFFAE0FCA3E04A
:10015B00FDA3E0FEA3E0FFA3E0C0E0A3E0C0E0A3AB
:10016B00E0F5D0A3E0F520A3E0A3F5F010AF0885F0
:10017B0083118582108008858311858210D2AFD0C0
:10018B0082D083D0E0F8D0E032C0E074F21200DD10
:10019B00C2C779041200D17F0102013CC0E074F2A6
:1001AB001200DDE589C394014003758900C2C5794E
:1001BB00041200D17F0102013C7C007D008019E814
:1001CB002401F8E93400F9C3E89417E9940240EFED
:1001DB00EC2401FCED3400FDC3EC9AED9B5006784A
:1001EB0000790080E20200AA43FE10C2940200AA2A
:1001FB00E9C394045026E942BE7A007B007A007B67
:10020B0000C3EA9404EB9400A2D265D0335010756E
:10021B008701EA2401FAEB3400FB80E575870002C5
:10022B0000AA53F3FD53FDFD538FFD43AB02438CEB
:10023B0002D2BD758900D2AF0200AA7E001200D790
:10024B001200CB801DD2F0A29430F001B392947ABD
:10025B00F47B011200C50EEEC3940640E87903123D
:06026B0000D17E0080F1CD
:040000050000009265
:00000001FF
